{
  "contractName": "Wallet",
  "abi": [
    {
      "inputs": [
        {
          "internalType": "address[]",
          "name": "_owners",
          "type": "address[]"
        },
        {
          "internalType": "uint256",
          "name": "_approvalRequired",
          "type": "uint256"
        }
      ],
      "stateMutability": "nonpayable",
      "type": "constructor"
    },
    {
      "anonymous": false,
      "inputs": [
        {
          "indexed": false,
          "internalType": "uint256",
          "name": "_id",
          "type": "uint256"
        },
        {
          "indexed": false,
          "internalType": "address",
          "name": "_approver",
          "type": "address"
        }
      ],
      "name": "TransactionApprovalReceived",
      "type": "event"
    },
    {
      "anonymous": false,
      "inputs": [
        {
          "indexed": false,
          "internalType": "uint256",
          "name": "_id",
          "type": "uint256"
        }
      ],
      "name": "TransactionRejected",
      "type": "event"
    },
    {
      "anonymous": false,
      "inputs": [
        {
          "indexed": false,
          "internalType": "uint256",
          "name": "_id",
          "type": "uint256"
        },
        {
          "indexed": false,
          "internalType": "address",
          "name": "_rejector",
          "type": "address"
        }
      ],
      "name": "TransactionRejectionReceived",
      "type": "event"
    },
    {
      "anonymous": false,
      "inputs": [
        {
          "indexed": false,
          "internalType": "uint256",
          "name": "_id",
          "type": "uint256"
        }
      ],
      "name": "TransactionSent",
      "type": "event"
    },
    {
      "anonymous": false,
      "inputs": [
        {
          "indexed": false,
          "internalType": "uint256",
          "name": "_id",
          "type": "uint256"
        },
        {
          "indexed": false,
          "internalType": "uint256",
          "name": "_amount",
          "type": "uint256"
        },
        {
          "indexed": false,
          "internalType": "address",
          "name": "_initiator",
          "type": "address"
        },
        {
          "indexed": false,
          "internalType": "address",
          "name": "_receiver",
          "type": "address"
        }
      ],
      "name": "TransferRequestCreated",
      "type": "event"
    },
    {
      "inputs": [],
      "name": "approvalRequired",
      "outputs": [
        {
          "internalType": "uint256",
          "name": "",
          "type": "uint256"
        }
      ],
      "stateMutability": "view",
      "type": "function",
      "constant": true
    },
    {
      "inputs": [],
      "name": "deposit",
      "outputs": [],
      "stateMutability": "payable",
      "type": "function",
      "payable": true
    },
    {
      "inputs": [],
      "name": "getContractBalance",
      "outputs": [
        {
          "internalType": "uint256",
          "name": "",
          "type": "uint256"
        }
      ],
      "stateMutability": "view",
      "type": "function",
      "constant": true
    },
    {
      "inputs": [],
      "name": "getWalletBalance",
      "outputs": [
        {
          "internalType": "uint256",
          "name": "",
          "type": "uint256"
        }
      ],
      "stateMutability": "view",
      "type": "function",
      "constant": true
    },
    {
      "inputs": [],
      "name": "viewOwners",
      "outputs": [
        {
          "internalType": "address[]",
          "name": "",
          "type": "address[]"
        }
      ],
      "stateMutability": "view",
      "type": "function",
      "constant": true
    },
    {
      "inputs": [],
      "name": "viewLatestTransactionId",
      "outputs": [
        {
          "internalType": "uint256",
          "name": "",
          "type": "uint256"
        }
      ],
      "stateMutability": "view",
      "type": "function",
      "constant": true
    },
    {
      "inputs": [
        {
          "internalType": "uint256",
          "name": "_amount",
          "type": "uint256"
        },
        {
          "internalType": "address payable",
          "name": "_receiver",
          "type": "address"
        }
      ],
      "name": "requestTransfer",
      "outputs": [
        {
          "internalType": "uint256",
          "name": "",
          "type": "uint256"
        }
      ],
      "stateMutability": "nonpayable",
      "type": "function"
    },
    {
      "inputs": [
        {
          "internalType": "uint256",
          "name": "_txId",
          "type": "uint256"
        }
      ],
      "name": "viewTransaction",
      "outputs": [
        {
          "components": [
            {
              "internalType": "address payable",
              "name": "to",
              "type": "address"
            },
            {
              "internalType": "uint256",
              "name": "amount",
              "type": "uint256"
            },
            {
              "internalType": "uint256",
              "name": "numberOfApprovals",
              "type": "uint256"
            },
            {
              "internalType": "uint256",
              "name": "numberOfRejections",
              "type": "uint256"
            },
            {
              "internalType": "uint256",
              "name": "txId",
              "type": "uint256"
            },
            {
              "internalType": "bool",
              "name": "sent",
              "type": "bool"
            },
            {
              "internalType": "bool",
              "name": "rejected",
              "type": "bool"
            }
          ],
          "internalType": "struct Wallet.PendingTransaction",
          "name": "",
          "type": "tuple"
        }
      ],
      "stateMutability": "view",
      "type": "function",
      "constant": true
    },
    {
      "inputs": [
        {
          "internalType": "uint256",
          "name": "_txId",
          "type": "uint256"
        }
      ],
      "name": "approvePendingTransaction",
      "outputs": [],
      "stateMutability": "nonpayable",
      "type": "function"
    },
    {
      "inputs": [
        {
          "internalType": "uint256",
          "name": "_txId",
          "type": "uint256"
        }
      ],
      "name": "rejectPendingTransaction",
      "outputs": [],
      "stateMutability": "nonpayable",
      "type": "function"
    }
  ],
  "bytecode": "0x60806040523480156200001157600080fd5b5060405162001b8638038062001b8683398181016040528101906200003791906200021d565b81600790805190602001906200004f929190620000b4565b50806009819055506000600a819055506009546007805490501015620000ac576040517f08c379a0000000000000000000000000000000000000000000000000000000008152600401620000a39062000305565b60405180910390fd5b50506200040f565b82805482825590600052602060002090810192821562000130579160200282015b828111156200012f5782518260006101000a81548173ffffffffffffffffffffffffffffffffffffffff021916908373ffffffffffffffffffffffffffffffffffffffff16021790555091602001919060010190620000d5565b5b5090506200013f919062000143565b5090565b5b808211156200015e57600081600090555060010162000144565b5090565b6000815190506200017381620003db565b92915050565b600082601f8301126200018b57600080fd5b8151620001a26200019c826200035b565b62000327565b91508181835260208401935060208101905083856020840282011115620001c857600080fd5b60005b83811015620001fc5781620001e1888262000162565b845260208401935060208301925050600181019050620001cb565b5050505092915050565b6000815190506200021781620003f5565b92915050565b600080604083850312156200023157600080fd5b600083015167ffffffffffffffff8111156200024c57600080fd5b6200025a8582860162000179565b92505060206200026d8582860162000206565b9150509250929050565b6000620002866054836200038a565b91507f54686520616d6f756e74206f6620617070726f76616c7320726571756972656460008301527f20666f722061207472616e73616374696f6e206973206d6f7265207468616e2060208301527f74686520616d6f756e74206f66206f776e6572730000000000000000000000006040830152606082019050919050565b60006020820190508181036000830152620003208162000277565b9050919050565b6000604051905081810181811067ffffffffffffffff82111715620003515762000350620003d9565b5b8060405250919050565b600067ffffffffffffffff821115620003795762000378620003d9565b5b602082029050602081019050919050565b600082825260208201905092915050565b6000620003a882620003af565b9050919050565b600073ffffffffffffffffffffffffffffffffffffffff82169050919050565b6000819050919050565bfe5b620003e6816200039b565b8114620003f257600080fd5b50565b6200040081620003cf565b81146200040c57600080fd5b50565b611767806200041f6000396000f3fe6080604052600436106100915760003560e01c80636f9fb98a116100595780636f9fb98a1461017d5780638916d12c146101a85780639f68b964146101e5578063d0e30db014610210578063f9773f921461021a57610091565b80632178168014610096578063329a27e7146100c157806340344232146100ec5780634f6d6922146101295780636db4d0b814610154575b600080fd5b3480156100a257600080fd5b506100ab610243565b6040516100b891906115a0565b60405180910390f35b3480156100cd57600080fd5b506100d661024d565b6040516100e391906115a0565b60405180910390f35b3480156100f857600080fd5b50610113600480360381019061010e919061112b565b610257565b60405161012091906115a0565b60405180910390f35b34801561013557600080fd5b5061013e610670565b60405161014b91906114c3565b60405180910390f35b34801561016057600080fd5b5061017b60048036038101906101769190611102565b6106fe565b005b34801561018957600080fd5b50610192610afd565b60405161019f91906115a0565b60405180910390f35b3480156101b457600080fd5b506101cf60048036038101906101ca9190611102565b610b05565b6040516101dc9190611585565b60405180910390f35b3480156101f157600080fd5b506101fa610bee565b60405161020791906115a0565b60405180910390f35b610218610bf4565b005b34801561022657600080fd5b50610241600480360381019061023c9190611102565b610c06565b005b6000600a54905090565b6000600b54905090565b6000806000905060005b6007805490508110156102eb576007818154811061027b57fe5b9060005260206000200160009054906101000a900473ffffffffffffffffffffffffffffffffffffffff1673ffffffffffffffffffffffffffffffffffffffff163373ffffffffffffffffffffffffffffffffffffffff1614156102de57600191505b8080600101915050610261565b506001151581151514610333576040517f08c379a000000000000000000000000000000000000000000000000000000000815260040161032a906114e5565b60405180910390fd5b600b54841115610378576040517f08c379a000000000000000000000000000000000000000000000000000000000815260040161036f90611525565b60405180910390fd5b6040518060e001604052808473ffffffffffffffffffffffffffffffffffffffff1681526020018581526020016001815260200160008152602001600a548152602001600015158152602001600015158152506000808201518160000160006101000a81548173ffffffffffffffffffffffffffffffffffffffff021916908373ffffffffffffffffffffffffffffffffffffffff1602179055506020820151816001015560408201518160020155606082015181600301556080820151816004015560a08201518160050160006101000a81548160ff02191690831515021790555060c08201518160050160016101000a81548160ff0219169083151502179055509050506006600090806001815401808255809150506001900390600052602060002090600602016000909190919091506000820160009054906101000a900473ffffffffffffffffffffffffffffffffffffffff168160000160006101000a81548173ffffffffffffffffffffffffffffffffffffffff021916908373ffffffffffffffffffffffffffffffffffffffff160217905550600182015481600101556002820154816002015560038201548160030155600482015481600401556005820160009054906101000a900460ff168160050160006101000a81548160ff0219169083151502179055506005820160019054906101000a900460ff168160050160016101000a81548160ff02191690831515021790555050507f099c4ec4ecfc26f7c8b27aeee5443f92120fa2c4e91ba6020369ae71a4d44278600a548533866040516105cd94939291906115e4565b60405180910390a1600160086000600a54815260200190815260200160002060003373ffffffffffffffffffffffffffffffffffffffff1673ffffffffffffffffffffffffffffffffffffffff16815260200190815260200160002060006101000a81548160ff0219169083151502179055506001600a6000828254019250508190555083600b600082825403925050819055506001600a540391505092915050565b606060078054806020026020016040519081016040528092919081815260200182805480156106f457602002820191906000526020600020905b8160009054906101000a900473ffffffffffffffffffffffffffffffffffffffff1673ffffffffffffffffffffffffffffffffffffffff16815260200190600101908083116106aa575b5050505050905090565b6000805b60078054905081101561078c576007818154811061071c57fe5b9060005260206000200160009054906101000a900473ffffffffffffffffffffffffffffffffffffffff1673ffffffffffffffffffffffffffffffffffffffff163373ffffffffffffffffffffffffffffffffffffffff16141561077f57600191505b8080600101915050610702565b5060011515811515146107d4576040517f08c379a00000000000000000000000000000000000000000000000000000000081526004016107cb906114e5565b60405180910390fd5b8160001515600682815481106107e657fe5b906000526020600020906006020160050160019054906101000a900460ff16151514610847576040517f08c379a000000000000000000000000000000000000000000000000000000000815260040161083e90611505565b60405180910390fd5b600015156006828154811061085857fe5b906000526020600020906006020160050160009054906101000a900460ff161515146108b9576040517f08c379a00000000000000000000000000000000000000000000000000000000081526004016108b090611545565b60405180910390fd5b600015156008600083815260200190815260200160002060003373ffffffffffffffffffffffffffffffffffffffff1673ffffffffffffffffffffffffffffffffffffffff16815260200190815260200160002060009054906101000a900460ff1615151461095d576040517f08c379a000000000000000000000000000000000000000000000000000000000815260040161095490611565565b60405180910390fd5b60016008600085815260200190815260200160002060003373ffffffffffffffffffffffffffffffffffffffff1673ffffffffffffffffffffffffffffffffffffffff16815260200190815260200160002060006101000a81548160ff0219169083151502179055506001600684815481106109d557fe5b9060005260206000209060060201600301600082825401925050819055507f52fc35ab83173c841d2912d470a3fce9be0bac68450e35a96a9405ebddedd4c18333604051610a249291906115bb565b60405180910390a160095460068481548110610a3c57fe5b906000526020600020906006020160030154600780549050031015610af857600160068481548110610a6a57fe5b906000526020600020906006020160050160016101000a81548160ff02191690831515021790555060068381548110610a9f57fe5b906000526020600020906006020160010154600b600082825401925050819055507ffa4662f37c565583d5185ebdcdcac33f234cc262047425711520503efc611c1c83604051610aef91906115a0565b60405180910390a15b505050565b600047905090565b610b0d611081565b60068281548110610b1a57fe5b90600052602060002090600602016040518060e00160405290816000820160009054906101000a900473ffffffffffffffffffffffffffffffffffffffff1673ffffffffffffffffffffffffffffffffffffffff1673ffffffffffffffffffffffffffffffffffffffff168152602001600182015481526020016002820154815260200160038201548152602001600482015481526020016005820160009054906101000a900460ff161515151581526020016005820160019054906101000a900460ff1615151515815250509050919050565b60095481565b34600b60008282540192505081905550565b6000805b600780549050811015610c945760078181548110610c2457fe5b9060005260206000200160009054906101000a900473ffffffffffffffffffffffffffffffffffffffff1673ffffffffffffffffffffffffffffffffffffffff163373ffffffffffffffffffffffffffffffffffffffff161415610c8757600191505b8080600101915050610c0a565b506001151581151514610cdc576040517f08c379a0000000000000000000000000000000000000000000000000000000008152600401610cd3906114e5565b60405180910390fd5b816000151560068281548110610cee57fe5b906000526020600020906006020160050160019054906101000a900460ff16151514610d4f576040517f08c379a0000000000000000000000000000000000000000000000000000000008152600401610d4690611505565b60405180910390fd5b6000151560068281548110610d6057fe5b906000526020600020906006020160050160009054906101000a900460ff16151514610dc1576040517f08c379a0000000000000000000000000000000000000000000000000000000008152600401610db890611545565b60405180910390fd5b600015156008600083815260200190815260200160002060003373ffffffffffffffffffffffffffffffffffffffff1673ffffffffffffffffffffffffffffffffffffffff16815260200190815260200160002060009054906101000a900460ff16151514610e65576040517f08c379a0000000000000000000000000000000000000000000000000000000008152600401610e5c90611565565b60405180910390fd5b60016008600085815260200190815260200160002060003373ffffffffffffffffffffffffffffffffffffffff1673ffffffffffffffffffffffffffffffffffffffff16815260200190815260200160002060006101000a81548160ff021916908315150217905550600160068481548110610edd57fe5b9060005260206000209060060201600201600082825401925050819055507fd7d903b24ac348e1987b7b9e4c76b5f50e0bc0af80f3fe7af6637bdecda190258333604051610f2c9291906115bb565b60405180910390a160095460068481548110610f4457fe5b906000526020600020906006020160020154141561103157610fc260068481548110610f6c57fe5b90600052602060002090600602016001015460068581548110610f8b57fe5b906000526020600020906006020160000160009054906101000a900473ffffffffffffffffffffffffffffffffffffffff16611036565b600160068481548110610fd157fe5b906000526020600020906006020160050160006101000a81548160ff0219169083151502179055507f6bc215631c1b4565ed4fa511379166f2e7cc55eab9dce0690f0e3979d2a0674e8360405161102891906115a0565b60405180910390a15b505050565b8073ffffffffffffffffffffffffffffffffffffffff166108fc839081150290604051600060405180830381858888f1935050505015801561107c573d6000803e3d6000fd5b505050565b6040518060e00160405280600073ffffffffffffffffffffffffffffffffffffffff168152602001600081526020016000815260200160008152602001600081526020016000151581526020016000151581525090565b6000813590506110e781611703565b92915050565b6000813590506110fc8161171a565b92915050565b60006020828403121561111457600080fd5b6000611122848285016110ed565b91505092915050565b6000806040838503121561113e57600080fd5b600061114c858286016110ed565b925050602061115d858286016110d8565b9150509250929050565b6000611173838361119d565b60208301905092915050565b611188816116cd565b82525050565b61119781611685565b82525050565b6111a681611673565b82525050565b60006111b782611639565b6111c18185611651565b93506111cc83611629565b8060005b838110156111fd5781516111e48882611167565b97506111ef83611644565b9250506001810190506111d0565b5085935050505092915050565b61121381611697565b82525050565b6000611226602283611662565b91507f596f7520617265206e6f7420616e206f776e6572206f66207468652077616c6c60008301527f65740000000000000000000000000000000000000000000000000000000000006020830152604082019050919050565b600061128c602983611662565b91507f546865207472616e73616374696f6e2068617320616c7265616479206265656e60008301527f2072656a656374656400000000000000000000000000000000000000000000006020830152604082019050919050565b60006112f2602683611662565b91507f5468652077616c6c657420646f65736e2774206861766520656e6f756768206260008301527f616c616e636500000000000000000000000000000000000000000000000000006020830152604082019050919050565b6000611358602583611662565b91507f546865207472616e73616374696f6e2068617320616c7265616479206265656e60008301527f2073656e740000000000000000000000000000000000000000000000000000006020830152604082019050919050565b60006113be603283611662565b91507f596f75206861766520616c726561647920617070726f7665642f72656a65637460008301527f656420746865207472616e73616374696f6e00000000000000000000000000006020830152604082019050919050565b60e08201600082015161142d600085018261118e565b50602082015161144060208501826114a5565b50604082015161145360408501826114a5565b50606082015161146660608501826114a5565b50608082015161147960808501826114a5565b5060a082015161148c60a085018261120a565b5060c082015161149f60c085018261120a565b50505050565b6114ae816116c3565b82525050565b6114bd816116c3565b82525050565b600060208201905081810360008301526114dd81846111ac565b905092915050565b600060208201905081810360008301526114fe81611219565b9050919050565b6000602082019050818103600083015261151e8161127f565b9050919050565b6000602082019050818103600083015261153e816112e5565b9050919050565b6000602082019050818103600083015261155e8161134b565b9050919050565b6000602082019050818103600083015261157e816113b1565b9050919050565b600060e08201905061159a6000830184611417565b92915050565b60006020820190506115b560008301846114b4565b92915050565b60006040820190506115d060008301856114b4565b6115dd602083018461117f565b9392505050565b60006080820190506115f960008301876114b4565b61160660208301866114b4565b611613604083018561117f565b611620606083018461117f565b95945050505050565b6000819050602082019050919050565b600081519050919050565b6000602082019050919050565b600082825260208201905092915050565b600082825260208201905092915050565b600061167e826116a3565b9050919050565b6000611690826116a3565b9050919050565b60008115159050919050565b600073ffffffffffffffffffffffffffffffffffffffff82169050919050565b6000819050919050565b60006116d8826116df565b9050919050565b60006116ea826116f1565b9050919050565b60006116fc826116a3565b9050919050565b61170c81611685565b811461171757600080fd5b50565b611723816116c3565b811461172e57600080fd5b5056fea26469706673582212205eff7d2e22a8b2d03ab15decbe51cc56a6be0c1eb816c0f125f5d3c0daff1fda64736f6c63430007050033",
  "immutableReferences": {},
  "source": "/* A multisig wallet is a wallet where multiple signatures or approvals are needed for an outgoing transfer to take place.\r\n As an example, I could create a multisig wallet with me and my 2 friends.\r\n I configure the wallet such that it requires at least 2 of us to sign any transfer before it is valid.\r\n Anyone can deposit funds into this wallet. But as soon as we want to spend funds, it requires 2/3 approvals.\r\nRequirements of the smart contract wallet you will be building:\r\n1. Anyone should be able to deposit ether into the smart contract\r\n2. The contract creator should be able to input:\r\n    (a): the addresses of the owners and\r\n    (b):  the numbers of approvals required for a transfer, in the constructor.\r\n           For example, input 3 addresses and set the approval limit to 2. \r\n3. Anyone of the owners should be able to create a transfer request. The creator of the transfer request will\r\n  specify what amount and to what address the transfer will be made.\r\n4. Owners should be able to approve transfer requests.\r\n5. When a transfer request has the required approvals, the transfer should be sent.\r\n*/\r\npragma solidity 0.7.5;\r\npragma abicoder v2; //required to do this if we want to return structs\r\n\r\ncontract Wallet {\r\n    struct PendingTransaction {\r\n        address payable to;\r\n        uint256 amount;\r\n        uint256 numberOfApprovals;\r\n        uint256 numberOfRejections;\r\n        uint256 txId;\r\n        bool sent;\r\n        bool rejected;\r\n    }\r\n    PendingTransaction pendingTransaction;\r\n    PendingTransaction[] pendingTransactions;\r\n    address[] owners;\r\n    // e.g. transacationApprovals[txId][0x....] = false; this double mapping keeps track\r\n    // of whether an owner has approved a certain transaction of not\r\n    mapping(uint256 => mapping(address => bool)) transactionApprovals;\r\n    uint256 public approvalRequired;\r\n    uint256 currentTxId;\r\n    uint256 walletBalance;\r\n    // events\r\n    event TransferRequestCreated(\r\n        uint256 _id,\r\n        uint256 _amount,\r\n        address _initiator,\r\n        address _receiver\r\n    );\r\n    event TransactionApprovalReceived(uint256 _id, address _approver);\r\n    event TransactionRejectionReceived(uint256 _id, address _rejector);\r\n    event TransactionSent(uint256 _id);\r\n    event TransactionRejected(uint256 _id);\r\n\r\n    // initializing\r\n    // _owners:\r\n    /* e.g. \r\n[\"0x5B38Da6a701c568545dCfcB03FcB875f56beddC4\",\"0xAb8483F64d9C6d1EcF9b849Ae677dD3315835cb2\",\"0x4B20993Bc481177ec7E8f571ceCaE8A9e22C02db\"]\r\n    \r\ntest pay to:\r\n0x78731D3Ca6b7E34aC0F824c42a7cC18A495cabaB\r\n    */\r\n    constructor(address[] memory _owners, uint256 _approvalRequired) {\r\n        owners = _owners;\r\n        approvalRequired = _approvalRequired;\r\n        currentTxId = 0;\r\n        require(\r\n            owners.length >= approvalRequired,\r\n            \"The amount of approvals required for a transaction is more than the amount of owners\"\r\n        );\r\n    }\r\n\r\n    // allows people to deposit\r\n    function deposit() public payable {\r\n        walletBalance += msg.value;\r\n    }\r\n\r\n    function getContractBalance() public view returns (uint256) {\r\n        return address(this).balance;\r\n    }\r\n\r\n    function getWalletBalance() public view returns (uint256) {\r\n        return walletBalance;\r\n    }\r\n\r\n    function viewOwners() public view returns (address[] memory) {\r\n        return owners;\r\n    }\r\n\r\n    function viewLatestTransactionId() public view returns (uint256) {\r\n        return currentTxId;\r\n    }\r\n\r\n    function requestTransfer(uint256 _amount, address payable _receiver)\r\n        public\r\n        onlyOwners\r\n        returns (uint256)\r\n    {\r\n        // what if its a pending transaction? balance wouldn't have been deducted yet.\r\n        // thats why need to keep a separate variable to keep track of walletBalance\r\n        require(\r\n            _amount <= walletBalance,\r\n            \"The wallet doesn't have enough balance\"\r\n        );\r\n        pendingTransaction = PendingTransaction(\r\n            _receiver,\r\n            _amount,\r\n            1,\r\n            0,\r\n            currentTxId,\r\n            false,\r\n            false\r\n        );\r\n        pendingTransactions.push(pendingTransaction); //pushes to the list of pendingTransactions\r\n        emit TransferRequestCreated(\r\n            currentTxId,\r\n            _amount,\r\n            msg.sender,\r\n            _receiver\r\n        );\r\n        transactionApprovals[currentTxId][msg.sender] = true; // changes to transactionApproval for the user to be true\r\n        currentTxId += 1; // increases currentTxId by 1 to prepare for the next transaction\r\n        walletBalance -= _amount; // reduces the transferrable amount\r\n\r\n        return currentTxId - 1; //returns the txId of the requested transfer\r\n    }\r\n\r\n    function viewTransaction(uint256 _txId)\r\n        public\r\n        view\r\n        returns (PendingTransaction memory)\r\n    {\r\n        return pendingTransactions[_txId];\r\n    }\r\n\r\n    function approvePendingTransaction(uint256 _txId)\r\n        public\r\n        onlyOwners\r\n        ableToApproveOrReject(_txId)\r\n    {\r\n        // approves the transaction\r\n        transactionApprovals[_txId][msg.sender] = true;\r\n        pendingTransactions[_txId].numberOfApprovals += 1;\r\n        emit TransactionApprovalReceived(_txId, msg.sender);\r\n        // checks if numberOfApprovals == approvalRequired and initiates the transfer if it is\r\n        if (pendingTransactions[_txId].numberOfApprovals == approvalRequired) {\r\n            payTo(\r\n                pendingTransactions[_txId].amount,\r\n                pendingTransactions[_txId].to\r\n            );\r\n            pendingTransactions[_txId].sent = true;\r\n            emit TransactionSent(_txId);\r\n        }\r\n    }\r\n\r\n    // this private function will be called if number of approvals is reached\r\n    function payTo(uint256 _amount, address payable _receiver) private {\r\n        _receiver.transfer(_amount);\r\n    }\r\n\r\n    // rejects the transaction\r\n    function rejectPendingTransaction(uint256 _txId)\r\n        public\r\n        onlyOwners\r\n        ableToApproveOrReject(_txId)\r\n    {\r\n        transactionApprovals[_txId][msg.sender] = true;\r\n        pendingTransactions[_txId].numberOfRejections += 1;\r\n        emit TransactionRejectionReceived(_txId, msg.sender);\r\n        // checks if numberOfApprovals == approvalRequired and initiates the transfer if it is\r\n        // e.g. 4 owners , 2 approvalRequired\r\n        // 1 rejected 1 approved: 4-1 | 2 => 3 > 2 => no reject\r\n        // 2 rejected 1 approve: 4-2 | 2 => 2 > 2 => no reject\r\n        // 3 rejected 1 approve: 4-3 | 2 => 1<2 => reject\r\n        // e.g. 3 owners , 3 approval required\r\n        // 1 rejected 1 approve: 3-1 | 3 => 2 <3 => reject\r\n        if (\r\n            owners.length - pendingTransactions[_txId].numberOfRejections <\r\n            approvalRequired\r\n        ) {\r\n            pendingTransactions[_txId].rejected = true;\r\n            walletBalance += pendingTransactions[_txId].amount; //increased the walletBalance back since tx rejected\r\n            emit TransactionRejected(_txId);\r\n        }\r\n    }\r\n\r\n    modifier onlyOwners() {\r\n        bool isOwners = false;\r\n        for (uint256 i = 0; i < owners.length; i++) {\r\n            if (msg.sender == owners[i]) {\r\n                isOwners = true;\r\n            }\r\n        }\r\n        require(isOwners == true, \"You are not an owner of the wallet\");\r\n        _;\r\n    }\r\n    modifier ableToApproveOrReject(uint256 _txId) {\r\n        // checks if transaction has been rejected\r\n        require(\r\n            pendingTransactions[_txId].rejected == false,\r\n            \"The transaction has already been rejected\"\r\n        );\r\n        // checks if transaction has already been sent\r\n        require(\r\n            pendingTransactions[_txId].sent == false,\r\n            \"The transaction has already been sent\"\r\n        );\r\n        // do a check to see if owner has already approved/rejected\r\n        require(\r\n            transactionApprovals[_txId][msg.sender] == false,\r\n            \"You have already approved/rejected the transaction\"\r\n        );\r\n        _;\r\n    }\r\n}\r\n/* \r\nFlow:\r\n1) Sender asks for permission to send requestTransfer\r\n2) Other owners approve/reject approvePendingTransaction/rejectPendingTransaction\r\n3)\r\n    If at the correct amount of approval: transaction gets automatically sent\r\n    If not possible to sent (due to rejects): transaction gets rejected\r\n*/\r\n",
  "sourcePath": "C:\\Users\\Denli\\Desktop\\CodeGod\\Solidity\\Moralis\\Eth Smart Contract Programming 201\\TruffleAssignment\\contracts\\Wallet.sol",
  "compiler": {
    "name": "solc",
    "version": "0.7.5+commit.eb77ed08.Emscripten.clang"
  },
  "schemaVersion": "3.4.3",
  "updatedAt": "2022-03-26T14:00:40.431Z",
  "networkType": "ethereum",
  "devdoc": {
    "kind": "dev",
    "methods": {},
    "version": 1
  },
  "userdoc": {
    "kind": "user",
    "methods": {},
    "version": 1
  }
}